{
  "address": "0x10747C71661365318c8163f22B34e57d16f54cF9",
  "abi": [
    {
      "inputs": [
        {
          "internalType": "address",
          "name": "priceFeedAddress",
          "type": "address"
        }
      ],
      "stateMutability": "nonpayable",
      "type": "constructor"
    },
    {
      "inputs": [],
      "name": "FundMe__NotOwner",
      "type": "error"
    },
    {
      "inputs": [
        {
          "internalType": "address",
          "name": "",
          "type": "address"
        }
      ],
      "name": "addressToAmountFunded",
      "outputs": [
        {
          "internalType": "uint256",
          "name": "",
          "type": "uint256"
        }
      ],
      "stateMutability": "view",
      "type": "function"
    },
    {
      "inputs": [],
      "name": "fund",
      "outputs": [],
      "stateMutability": "payable",
      "type": "function"
    },
    {
      "inputs": [
        {
          "internalType": "uint256",
          "name": "",
          "type": "uint256"
        }
      ],
      "name": "funders",
      "outputs": [
        {
          "internalType": "address",
          "name": "",
          "type": "address"
        }
      ],
      "stateMutability": "view",
      "type": "function"
    },
    {
      "inputs": [],
      "name": "minimumUsd",
      "outputs": [
        {
          "internalType": "uint256",
          "name": "",
          "type": "uint256"
        }
      ],
      "stateMutability": "view",
      "type": "function"
    },
    {
      "inputs": [],
      "name": "priceFeed",
      "outputs": [
        {
          "internalType": "contract AggregatorV3Interface",
          "name": "",
          "type": "address"
        }
      ],
      "stateMutability": "view",
      "type": "function"
    },
    {
      "inputs": [],
      "name": "withdraw",
      "outputs": [],
      "stateMutability": "nonpayable",
      "type": "function"
    }
  ],
  "transactionHash": "0xee111adc38a1b78003d7ce409f686840677437b92c57567d06b36796acadc641",
  "args": [
    "0x8A753747A1Fa494EC906cE90E9f37563A8AF630e"
  ],
  "numDeployments": 2,
  "solcInputHash": "b3715458b8a3a1b6dc7cdfa9b8c116c3",
  "bytecode": "0x608060405234801561001057600080fd5b50604051610eef380380610eef8339818101604052810190610032919061011d565b33600160006101000a81548173ffffffffffffffffffffffffffffffffffffffff021916908373ffffffffffffffffffffffffffffffffffffffff16021790555080600360006101000a81548173ffffffffffffffffffffffffffffffffffffffff021916908373ffffffffffffffffffffffffffffffffffffffff1602179055505061014a565b600080fd5b600073ffffffffffffffffffffffffffffffffffffffff82169050919050565b60006100ea826100bf565b9050919050565b6100fa816100df565b811461010557600080fd5b50565b600081519050610117816100f1565b92915050565b600060208284031215610133576101326100ba565b5b600061014184828501610108565b91505092915050565b610d96806101596000396000f3fe6080604052600436106100555760003560e01c8063098de8201461005a5780633ccfd60b146100855780633e47d6f31461009c578063741bef1a146100d9578063b60d428814610104578063dc0d3dff1461010e575b600080fd5b34801561006657600080fd5b5061006f61014b565b60405161007c91906106da565b60405180910390f35b34801561009157600080fd5b5061009a610157565b005b3480156100a857600080fd5b506100c360048036038101906100be9190610758565b610399565b6040516100d091906106da565b60405180910390f35b3480156100e557600080fd5b506100ee6103b1565b6040516100fb91906107e4565b60405180910390f35b61010c6103d7565b005b34801561011a57600080fd5b506101356004803603810190610130919061082b565b6104ff565b6040516101429190610867565b60405180910390f35b678ac7230489e8000081565b600160009054906101000a900473ffffffffffffffffffffffffffffffffffffffff1673ffffffffffffffffffffffffffffffffffffffff163373ffffffffffffffffffffffffffffffffffffffff16146101de576040517f579610db00000000000000000000000000000000000000000000000000000000815260040160405180910390fd5b60005b60008054905081101561028957600080828154811061020357610202610882565b5b9060005260206000200160009054906101000a900473ffffffffffffffffffffffffffffffffffffffff1690506000600260008373ffffffffffffffffffffffffffffffffffffffff1673ffffffffffffffffffffffffffffffffffffffff16815260200190815260200160002081905550508080610281906108e0565b9150506101e1565b50600067ffffffffffffffff8111156102a5576102a4610929565b5b6040519080825280602002602001820160405280156102d35781602001602082028036833780820191505090505b50600090805190602001906102e992919061061a565b5060003373ffffffffffffffffffffffffffffffffffffffff164760405161031090610989565b60006040518083038185875af1925050503d806000811461034d576040519150601f19603f3d011682016040523d82523d6000602084013e610352565b606091505b5050905080610396576040517f08c379a000000000000000000000000000000000000000000000000000000000815260040161038d906109fb565b60405180910390fd5b50565b60026020528060005260406000206000915090505481565b600360009054906101000a900473ffffffffffffffffffffffffffffffffffffffff1681565b678ac7230489e80000610415600360009054906101000a900473ffffffffffffffffffffffffffffffffffffffff163461053e90919063ffffffff16565b1015610456576040517f08c379a000000000000000000000000000000000000000000000000000000000815260040161044d90610a67565b60405180910390fd5b6000339080600181540180825580915050600190039060005260206000200160009091909190916101000a81548173ffffffffffffffffffffffffffffffffffffffff021916908373ffffffffffffffffffffffffffffffffffffffff16021790555034600260003373ffffffffffffffffffffffffffffffffffffffff1673ffffffffffffffffffffffffffffffffffffffff16815260200190815260200160002081905550565b6000818154811061050f57600080fd5b906000526020600020016000915054906101000a900473ffffffffffffffffffffffffffffffffffffffff1681565b60008061054a8361057a565b90506000670de0b6b3a764000085836105639190610a87565b61056d9190610b10565b9050809250505092915050565b6000808273ffffffffffffffffffffffffffffffffffffffff1663feaf968c6040518163ffffffff1660e01b815260040160a06040518083038186803b1580156105c357600080fd5b505afa1580156105d7573d6000803e3d6000fd5b505050506040513d601f19601f820116820180604052508101906105fb9190610bce565b5050509150506402540be400816106129190610c49565b915050919050565b828054828255906000526020600020908101928215610693579160200282015b828111156106925782518260006101000a81548173ffffffffffffffffffffffffffffffffffffffff021916908373ffffffffffffffffffffffffffffffffffffffff1602179055509160200191906001019061063a565b5b5090506106a091906106a4565b5090565b5b808211156106bd5760008160009055506001016106a5565b5090565b6000819050919050565b6106d4816106c1565b82525050565b60006020820190506106ef60008301846106cb565b92915050565b600080fd5b600073ffffffffffffffffffffffffffffffffffffffff82169050919050565b6000610725826106fa565b9050919050565b6107358161071a565b811461074057600080fd5b50565b6000813590506107528161072c565b92915050565b60006020828403121561076e5761076d6106f5565b5b600061077c84828501610743565b91505092915050565b6000819050919050565b60006107aa6107a56107a0846106fa565b610785565b6106fa565b9050919050565b60006107bc8261078f565b9050919050565b60006107ce826107b1565b9050919050565b6107de816107c3565b82525050565b60006020820190506107f960008301846107d5565b92915050565b610808816106c1565b811461081357600080fd5b50565b600081359050610825816107ff565b92915050565b600060208284031215610841576108406106f5565b5b600061084f84828501610816565b91505092915050565b6108618161071a565b82525050565b600060208201905061087c6000830184610858565b92915050565b7f4e487b7100000000000000000000000000000000000000000000000000000000600052603260045260246000fd5b7f4e487b7100000000000000000000000000000000000000000000000000000000600052601160045260246000fd5b60006108eb826106c1565b91507fffffffffffffffffffffffffffffffffffffffffffffffffffffffffffffffff82141561091e5761091d6108b1565b5b600182019050919050565b7f4e487b7100000000000000000000000000000000000000000000000000000000600052604160045260246000fd5b600081905092915050565b50565b6000610973600083610958565b915061097e82610963565b600082019050919050565b600061099482610966565b9150819050919050565b600082825260208201905092915050565b7f43616c6c204661696c6564000000000000000000000000000000000000000000600082015250565b60006109e5600b8361099e565b91506109f0826109af565b602082019050919050565b60006020820190508181036000830152610a14816109d8565b9050919050565b7f6469646e742073656e6420656e6f756768000000000000000000000000000000600082015250565b6000610a5160118361099e565b9150610a5c82610a1b565b602082019050919050565b60006020820190508181036000830152610a8081610a44565b9050919050565b6000610a92826106c1565b9150610a9d836106c1565b9250817fffffffffffffffffffffffffffffffffffffffffffffffffffffffffffffffff0483118215151615610ad657610ad56108b1565b5b828202905092915050565b7f4e487b7100000000000000000000000000000000000000000000000000000000600052601260045260246000fd5b6000610b1b826106c1565b9150610b26836106c1565b925082610b3657610b35610ae1565b5b828204905092915050565b600069ffffffffffffffffffff82169050919050565b610b6081610b41565b8114610b6b57600080fd5b50565b600081519050610b7d81610b57565b92915050565b6000819050919050565b610b9681610b83565b8114610ba157600080fd5b50565b600081519050610bb381610b8d565b92915050565b600081519050610bc8816107ff565b92915050565b600080600080600060a08688031215610bea57610be96106f5565b5b6000610bf888828901610b6e565b9550506020610c0988828901610ba4565b9450506040610c1a88828901610bb9565b9350506060610c2b88828901610bb9565b9250506080610c3c88828901610b6e565b9150509295509295909350565b6000610c5482610b83565b9150610c5f83610b83565b9250827f7fffffffffffffffffffffffffffffffffffffffffffffffffffffffffffffff0482116000841360008413161615610c9e57610c9d6108b1565b5b817f80000000000000000000000000000000000000000000000000000000000000000583126000841260008413161615610cdb57610cda6108b1565b5b827f80000000000000000000000000000000000000000000000000000000000000000582126000841360008412161615610d1857610d176108b1565b5b827f7fffffffffffffffffffffffffffffffffffffffffffffffffffffffffffffff0582126000841260008412161615610d5557610d546108b1565b5b82820290509291505056fea26469706673582212200ee0812fdb2ed2e5793f5d78d6a9c0e17b1d0e9bd335964e6c3f6170c60823f164736f6c63430008080033",
  "devdoc": {
    "kind": "dev",
    "methods": {},
    "version": 1
  },
  "userdoc": {
    "kind": "user",
    "methods": {},
    "version": 1
  },
  "storageLayout": {
    "storage": [
      {
        "astId": 62,
        "contract": "contracts/FundMe.sol:FundMe",
        "label": "funders",
        "offset": 0,
        "slot": "0",
        "type": "t_array(t_address)dyn_storage"
      },
      {
        "astId": 64,
        "contract": "contracts/FundMe.sol:FundMe",
        "label": "owner",
        "offset": 0,
        "slot": "1",
        "type": "t_address"
      },
      {
        "astId": 68,
        "contract": "contracts/FundMe.sol:FundMe",
        "label": "addressToAmountFunded",
        "offset": 0,
        "slot": "2",
        "type": "t_mapping(t_address,t_uint256)"
      },
      {
        "astId": 71,
        "contract": "contracts/FundMe.sol:FundMe",
        "label": "priceFeed",
        "offset": 0,
        "slot": "3",
        "type": "t_contract(AggregatorV3Interface)45"
      }
    ],
    "types": {
      "t_address": {
        "encoding": "inplace",
        "label": "address",
        "numberOfBytes": "20"
      },
      "t_array(t_address)dyn_storage": {
        "base": "t_address",
        "encoding": "dynamic_array",
        "label": "address[]",
        "numberOfBytes": "32"
      },
      "t_contract(AggregatorV3Interface)45": {
        "encoding": "inplace",
        "label": "contract AggregatorV3Interface",
        "numberOfBytes": "20"
      },
      "t_mapping(t_address,t_uint256)": {
        "encoding": "mapping",
        "key": "t_address",
        "label": "mapping(address => uint256)",
        "numberOfBytes": "32",
        "value": "t_uint256"
      },
      "t_uint256": {
        "encoding": "inplace",
        "label": "uint256",
        "numberOfBytes": "32"
      }
    }
  }
}